:020000040800F2
:100000004047022035400008794000088940000838
:1000100099400008A9400008B9400008000000000D
:10002000000000000000000000000000794000080F
:10003000794000080000000079400008A53700085A
:1000400079400008794000087940000879400008AC
:10005000794000087940000879400008794000089C
:10006000794000087940000879400008794000088C
:10007000794000087940000879400008794000087C
:10008000794000087940000879400008794000086C
:10009000794000087940000879400008794000085C
:1000A000794000087940000879400008794000084C
:1000B000794000087940000879400008794000083C
:1000C000794000087940000879400008794000082C
:1000D00079400008E90200087940000879400008EA
:1000E000094000087940000879400008794000087C
:1000F00079400008794000087940000879400008FC
:1001000079400008E1D70208958702087940000885
:1001100079400008794000087940000879400008DB
:10012000794000087940000879400008E5D70208C6
:1001300079400008794000087940000879400008BB
:1001400079400008794000087940000879400008AB
:10015000794000087940000879400008794000089B
:10016000794000087940000879400008794000088B
:1001700079400008CD8702087940000879400008DE
:10018000794000087940000879400008794000086B
:10019000794000087940000879400008794000085B
:0C01A000993600087940000879400008FA
:1001B00000B5012183B0084626F094FC02A9012372
:1001C00041F8083D0322002306488DF804308DF8DD
:1001D00006308DF807308DF8052025F0DBFD03B0E3
:1001E0005DF804FB0000024008B50121034825F03A
:1001F0003BFE003018BF012008BD00BF00000240D8
:100200002DE9F041012188B02D4F2E4D084626F0F2
:1002100069FC0121102026F095FC384607220921AF
:1002200025F046FE0DF12008384607220A2125F068
:100230003FFE4FF4007348F8183D012402220026C7
:100240003846414603238DF80C208DF80D308DF88B
:100250000E608DF80F4025F09DFD4FF48063414600
:100260003846029325F096FD2146284628F000F8EE
:100270004FF4E13204A94FF4402328460492069338
:100280000596ADF81C6027F05FFF4FF4A06024F0E6
:1002900027FD252301A8ADF804308DF806608DF800
:1002A000074024F027FD2246284640F2255128F039
:1002B00085F82146284627F0C7FF08B0BDE8F08141
:1002C000000002400010014010B50446802105489E
:1002D00028F092F80028F9D021460248BDE81040E5
:1002E00027F0DCBF0010014008B540F22551064858
:1002F00028F08CF8012800D008BD034827F0D2FF71
:10030000024B187008BD00BF001001402CAB01204B
:10031000F0B5059E07460020188030803C785CB31D
:100320001D8813E0CC7891F802E091F801C0654493
:100330002544ADB21D8034880130744580B238BF89
:10034000A6F800E03C5C38BF1D88BCB10A2C15D073
:100350000AB1202C12D091F804C0BCF1000FE1D1F9
:10036000DC2C30D00ED9E42C27D022D9F62C1CD08E
:10037000FC2C0DD162240CE01D8820464A78AD1A71
:100380001D80F0BDC42C1CD0D62C10D0A72C16D0AC
:10039000203C01EB4404E4880C4494F8DAE094F83F
:1003A000D8C094F8D940E644BFE76124F1E764245B
:1003B000EFE7DF2CECD16624EBE76024E9E7672464
:1003C000E7E76324E5E76524E3E700BF10B40A4CE0
:1003D0000023224602E001331E2B09D052F8041BF1
:1003E0000029F8D144F8230001205DF8044B704740
:1003F00000205DF8044B704730AB012010B40B4C6B
:100400000023224602E001331E2B0AD052F8041BBF
:100410008142F8D1002244F8232001205DF8044BEA
:10042000704700205DF8044B704700BF30AB0120DF
:10043000044B002103F1780243F8041F9342FBD1DF
:10044000704700BF2CAB012003F006B970B58AB02D
:10045000044624F041FE684624F0A2FE124AE30A54
:10046000C4F34511126804934FF44033684604F016
:100470001F0402260391FF250021069200934FF4EA
:10048000A072F023CDE90712099302940196059515
:1004900024F030FE24F090FE022024F07BFF0028A0
:1004A000FAD00AB070BD00BFACAB01204FF6FF70B0
:1004B000FFF7CCBF2DE9F0410479A2B0002C6CD03D
:1004C000012C67D18B88002B64D0CA88002A61D0A8
:1004D0000D880488EE18A6425CDC4E88478806EB3F
:1004E000020CBC4556DC0F893B44F02B52DC4B8997
:1004F0001A44B2F5A07F4DDC544A8068126801911D
:10050000C3EB031307EB031706FB045502EB470786
:1005100000EB850624F0E0FD02A824F041FE0199DD
:1005200008978B88CA880A92C3F1F0054FF4003C03
:1005300002A84FF0020809950025CDE902C80B93E7
:10054000CDE90455CDE9065524F0D4FD0CA824F0DE
:1005500089FE01990C968B880E95E41A0CA8CDE9BA
:1005600011550D9424F046FE17A824F0C1FE019900
:1005700017978B8817A8C3F1F003CDE91838CDE998
:100580001C5524F07DFE24F017FE022024F002FF0B
:100590000028FAD022B0BDE8F0818B88002BF9D07A
:1005A000CA88002AF6D00E880588F718AF42F1DC19
:1005B0004F88B0F802C007EB020EE645EADCB1F85E
:1005C00008C06344F02BE5DC4B891A44B2F5A07FE8
:1005D000E0DC1E4A806812680191C3EB03130CEB48
:1005E000031C07FB056600EB460602EB4C0724F0F4
:1005F00073FD0CA824F0D4FD019912978B88CA884A
:100600001593C3F1F00C0CA80227CDF84CC014923E
:100610000C94CDE90E44CDE910440D9724F06AFD09
:1006200017A824F01FFE019917968B8817A8ED1ABA
:10063000CDE91857CDE91C4424F0DCFD24F0BCFDC5
:10064000022024F0A7FE0028FAD0A3E7ACAB0120DB
:1006500038B50C4C04F1780501E0AC4210D054F8E8
:10066000043F002BF9D01A7D002AF6D01A78002A10
:10067000F3D103F108015868FFF71CFFAC42EED13B
:1006800038BD00BF2CAB01202DE9F0410746ADF588
:100690000C7D0E4603A8394601222EF055F800289D
:1006A00041D1044602AB0DF10601022203A8069DCA
:1006B0002EF0D4F9804600283ED1BDF806304DF624
:1006C000FF02934244D033800DF1060102AB0222B7
:1006D00003A82EF0C3F9BDF8063073800DF10601B2
:1006E00002AB022203A82EF0B9F9BDF8063033712F
:1006F0000DF1060102AB083D022203A82EF0AEF96F
:10070000284631F08DFE02AB014604462A4603A876
:100710002EF0A4F903A82EF055FB0120B4600DF5CE
:100720000C7DBDE8F08139462B4832F011F90020EC
:100730000DF50C7DBDE8F0813946284832F008F906
:1007400003A82EF03FFB20460DF50C7DBDE8F0819F
:10075000014603A82EF044FB86F80480284631F0B9
:100760005FFE02AB014604462A4603A82EF076F946
:1007700003A82EF027FBC5B12919234601E09942B1
:1007800013D0181B13F8012BFF2AF8D11A78C02AAE
:10079000F5D12044C579027A4179837942EA05226C
:1007A00043EA01203280708001E03288708800FBCB
:1007B00002F0400031F034FE0023014605461A469F
:1007C000204601F05FFE204631F032FE0120B56088
:1007D0000DF50C7DBDE8F08104680508E4670508A7
:1007E00010B50446806831F023FE0023A36010BDDD
:1007F0002DE9F04F2DED028B8BB00546099010EEE0
:10080000100A0C46904607912FF0FEFA41EC100BAF
:1008100041EC180B30F034F90022504B51EC100B26
:100820002FF04AFB2FF0E2FDB0EE480AF0EE680A26
:1008300007B230F069F90022484B51EC100B2FF051
:100840003BFB2FF0D3FD23462288B3F90210B5F904
:100850000240B5F900A0059404EBD47B0C4613B21A
:10086000002C069103930AEBDA7903EBD37301EBC7
:10087000D1716EDD0FFA80FE4910013A5B1001FB69
:100880000EF092B203FB0700920003FB0EF300246C
:100890004FEA69094FEA6B0B089207FB113342429A
:1008A0002F4802941FFA89F91FFA8BFB01920093DB
:1008B0000494039B002B3ADD079B029A9C68089BDB
:1008C000194601EB020C231D9C441444DDE900652C
:1008D00042461BE080FB06814FEAE678C8EBA11197
:1008E00059449A4509B21ADD002918DD01FB0A387E
:1008F000059B8B4213DD099B996851F828302360D2
:100900000434A4453D44A6EB0E060FD080FB05132E
:10091000E917C1EBA3134B441BB2002BDADC2260B6
:100920000434A4453D44A6EB0E06EFD19046019A4F
:10093000049B72440192009A3A440092DDE902213C
:1009400002EB810201330292069A1BB29A4204938F
:10095000AFD10BB0BDEC028BBDE8F08F00408F40F3
:10096000D34D62102DE9F04F4668B6F800907588B7
:10097000337983B0804605FB09F2002B4AD0012B66
:1009800008BF042348D103FB02F31846009331F05B
:1009900047FDB368019307464DB3AC0009F1FF3E34
:1009A000013DA4F1040AADB21FFA8EFEAAEB850543
:1009B0004FEA8E0EA3F1040C4B4600EB050A4FEAFA
:1009C000890B0EF1040EB14605191E4656B10EEB09
:1009D0000C002A46634653F8041F42F8041C834265
:1009E0002244F8D1043D5545DC44EFD14E46DDE9C3
:1009F0000020394631F07EFF384631F019FD33884A
:100A0000728832807380A8F80C20A8F80E3003B0EA
:100A1000BDE8F08F0223B6E7014802F0CBFE00BF2D
:100A20001C6805082DE9F843B0F80090B0F8028082
:100A3000077904460D4608FB09F2E7B1012F1CD1E6
:100A40000426A86806FB02F630B131F0F1FCB4F8D8
:100A50000090B4F802802779304631F0E1FCA860BC
:100A6000A168324631F046FFA5F80090A5F8028053
:100A70002F71BDE8F8830226E3E7014802F09AFEF1
:100A80001C68050838B5047905883CB1012C0BD1E8
:100A900005FB0212816841F8223038BD05FB0212C5
:100AA000816821F8123038BD014802F083FE00BF92
:100AB0001C68050808B5037943B1012B0DD10388E3
:100AC000806802FB031250F8220008BD038880688A
:100AD00002FB031230F8120008BD014802F06AFE62
:100AE0001C6805082DE9F04F91B0DC280492884677
:100AF0001A9A00F0948152D9E42861D040F28A8198
:100B0000F62800F03481FC2852D182201179002986
:100B10005AD092F802C0D1780F911FFA8CFEBEF124
:100B2000000F49D020380CFB002CDDF81090DDF8C8
:100B30006CA00CF1D80C8DB200241CF8016B35B3FD
:100B40008020002205E0013292B2AA424FEA500012
:100B50001DD00642F7D0B8F8007098F804B017FB23
:100B60000491114489B2BBF1000F00F00281BBF186
:100B7000010F40F05A81013207FB031192B2D8F8FD
:100B80000870AA4247F821A04FEA5000E1D1013491
:100B9000A4B27445D1D10F9811B0BDE8F08FC4282C
:100BA00000F03F81D62800F0E080A72800F03B81CC
:100BB0001F28ABD800230F930F9811B0BDE8F08F1A
:100BC000117980200029A4D102EB400030F83A1CB2
:100BD0000A44059292F8D94092F8D80092F8DA10B7
:100BE0000F94A2B2002AE7D003449BB206938BB2C3
:100BF00003931B9B049CC3F307430D931B9BC3F3FD
:100C000007230E931B9BC3F3C4230B931B9BC3F3BC
:100C1000451322440C93032392B2009301230A92BA
:100C20009946C346039B002B00F0B8804FF00008A4
:100C30004D468BE004F0F004F02C7ED0BBF800A011
:100C4000049B9BF8046018FB0A339BB20293002CB0
:100C500000F09680069A1946584684F0FF04FFF784
:100C600029FF002E00F0A680012E40F0DE801B9BA5
:100C7000DDE90D294FEA106CDBB25FFA8CF10793C6
:100C8000C0F3074EC0F307231FFA8CFCC0B20892D2
:100C9000A2B202FB0CF70192654AA2FB0727621879
:100CA0001FFA8EFE019C0992089A1EFB0CF19BB262
:100CB00002FB041113FB0CF209FB042980B2079A12
:100CC00010FB0CFCC7F3CF1702FB04CC099A17FBEF
:100CD0000EFE17FB03F317FB00F0A1EB0E0ED41B67
:100CE000A9EB0309ACEB000CE4B21FFA8EFE1FFA6D
:100CF00089F91FFA8CFC9EFBF4FE99FBF4F99CFB2E
:100D0000F4FC002E71D0012E17D1069A02995FFAD9
:100D10008CF34FEA0E4E43EA04630EF47F0E4FEA63
:100D200009290AFB021143EA0E031FFA89F9DBF8CD
:100D3000082043EA090342F8213008F10108039B27
:100D40001FFA88F8984585F0010526D0059B009A82
:100D5000134493F8D840002D7FF46CAF009B01330F
:100D600024019BB2E4B2009366E78420CEE68120A2
:100D7000CCE607FB0311D8F8087027F811A0E2E6CB
:100D80004EB3012E51D1029A069B1B990AFB0323F5
:100D9000DBF8082042F82310CFE7A946049B0A9A03
:100DA00001339BB29A4204937FF43CAF0F9811B089
:100DB000BDE8F08F1B9BDDE90B2903F01F034FF00B
:100DC000FF0C0793C0F3C42EC0F34513614600F037
:100DD0001F0008925CE7069B029A1B990AFB0322FC
:100DE000DBF8083023F81210A7E7029A069BC9F334
:100DF00085094FEA4919CEF3C40E0AFB032149EADB
:100E0000CE2ECCF3C40CDBF808204EEA0C0C22F8F2
:100E100011C092E7DF287FF4CBAE862076E68520EE
:100E200074E6832072E6872070E6024802F0C2FC76
:100E3000818080801C68050870B5147982B0069D99
:100E40007CB1D6789C8801951D895B890092A41B92
:100E500004EBD47405EB6404A2B2FFF743FE02B0C6
:100E600070BDDC2822D008D9E4281DD00ED9F62880
:100E70001ED0FC2807D162240BE0C4281AD0D62843
:100E800010D0A7280CD0A0F1200402E0DF28FAD16E
:100E9000662402EB4404E488144494F8D960D1E752
:100EA0006724F6E76424F4E76024F2E76524F0E7BA
:100EB0006124EEE76324ECE72DE9F04F85B081462D
:100EC0000078109DBDF83840BDF83CB0039500286F
:100ED0003FD09A4690460D461E46002717E00D2843
:100EE00010D0B8F802202144914265DC039B3246C1
:100EF000CDE9005341462346FFF7F4FD6B781844D3
:100F00000644B6B20137BFB219F8070008B32B790F
:100F100013B3EB78A978B8F800203344934204DC8B
:100F2000BBF1000F07D05B4505DDAB782A78134491
:100F30001C44A4B256460A28D1D10137AB782A788E
:100F4000BFB2134419F807001C44A4B25646002847
:100F5000DDD105B0BDE8F08FDC282BD008D9E4281E
:100F600022D01DD9F62819D0FC2807D1622307E02A
:100F7000C4281BD0D6280FD0A72819D0A0F1200351
:100F800005EB4303DB882B4493F8DA1093F8D82061
:100F900093F8D9301144BEE76423F1E76123EFE70A
:100FA000DF28EBD16623EBE76023E9E76323E7E77C
:100FB0006723E5E76523E3E703480B46494605B0A9
:100FC000BDE8F04F31F0C4BC346805082DE9F04F9E
:100FD00089B08046BDF84850039393461C46BDF83F
:100FE0004C20007805922B4600270D46994670B19B
:100FF0000A280FD10137AB782A78039CBFB213447B
:1010000018F8070099441FFA89F90028F0D109B0AF
:10101000BDE8F08F0DF11E0308EB070600930122D7
:1010200007AB30462946FFF773F9BDF81C30BBF813
:10103000002002902344934203DC059A42B193427C
:1010400006DDAB782A78039C134499441FFA89F98A
:10105000BDF81E30BBF802204B44934234DC029BA7
:10106000D3B1029A049708F1010A0AEB070302F1CF
:10107000FF3A149F13FA8AFA16F8010B4B462246E0
:10108000CDE900575946FFF72DFD6B78184404440D
:101090005645A4B2F0D1049F029B1F44BFB218F87A
:1010A00007002028A3D1149B2246CDE900535946BE
:1010B0004B46FFF717FD6B7801371844BFB2044465
:1010C000A4B218F8070092E74146034831F040FC0B
:1010D00009B0BDE8F08F00BF346805082DE9F04184
:1010E00086B015460DF116021E46009205AB002291
:1010F00007460C9CFFF70CF92B88BDF814200096CE
:101100009B1A002603EBD373029438462A46C3F396
:101110004F030196FFF75AFF06B0BDE8F08100BF0C
:101120002DE9F04F05888BB0CC18AC42BDF850804B
:1011300004DC448808EB0206A64202DD0BB0BDE8E1
:10114000F08F1E4603790446002B37D0012B41D186
:10115000159BC3F3074BC3F3072A5FFA83F9159B6B
:1011600004201F0EA36802FB051500FB053523F0C4
:10117000B3FF684624F014F823794FF4403200920C
:1011800033B3012B08BF002224D1238801929B1B7B
:1011900068460793CDE903ABCDF80890CDE9057516
:1011A000CDE9088623F0A6FF24F006F8022024F0FB
:1011B000F1F80028FAD00BB0BDE8F08F159B0220A3
:1011C000C3F3C42BC3F3451A03F01F09FF27C9E774
:1011D0000222DAE7014802F0EDFA00BF1C680508B8
:1011E0002DE9F047BDF82050DDF824C0AA421C4686
:1011F00002D82B4615461A46A14202D823460C4671
:1012000019460B1B9BB2002B40D0571BBFB28FB3AC
:1012100090F804E00688BEF1000F43D0BEF1010F44
:1012200067D106FB0549D0F80880BB4248F829C0C1
:1012300041D2790809E0BEF1010F5AD106FB0546FB
:10124000AA4248F826C013D00688194489B28F42B2
:1012500003D8C91B013489B2A4B20135ADB2BEF1C5
:10126000000FE8D106FB0546AA4228F816C0EBD1CC
:10127000BDE8F08701260133CDF824C02A46214677
:1012800008969BB2BDE8F047FFF74ABF0132521BF8
:1012900092B2CDE9082C21462A460123BDE8F04749
:1012A000FFF73EBF06FB0546D0F8088028F816C0B9
:1012B000BB420688BDD35A0809E0BEF1010F18D120
:1012C00006FB054648F826C0A142D1D006883A441C
:1012D00092B2934203D8D21A013592B2ADB2013420
:1012E000A4B2BEF1000FE8D106FB054628F816C0EF
:1012F000EAE7014802F05EFA1C68050893883BB1F2
:101300002DE9F04FD488A1B01CB921B0BDE8F08F11
:101310007047B2F800C007880CEB0305BD42F4DC4F
:10132000B2F802E045880EEB0406AE42EDDCB2F8FE
:1013300008A0B1F8008053444345E6DCB2F80AB097
:101340004B885C449C42E0DC03790E46054614461B
:10135000002B68D0012B08BF4FF004096ED1AB6899
:1013600032790EFB07CC09FB0C39002A64D0012A24
:1013700008BF042262D1B3680BFB08AA02FB0A3A39
:1013800023F0AAFE684623F00BFF33794FF40032B6
:101390000092002B4ED0012B08BF00214ED1A38814
:1013A000E28801916846A8EB03014FF0000B099316
:1013B00008920791CDF818A0CDE902BBCDE904BB96
:1013C00023F098FE0AA823F04DFFA2882B79CDF8D0
:1013D0002890BF1A0B975BB3012B08BF5B462DD13A
:1013E0000AA800250C93CDE90F5523F003FF15A89B
:1013F00023F07EFFA3883279CDF854A0A8EB030335
:1014000016939AB1012A19D1002315A8CDE91A33F0
:10141000179523F035FF23F0CFFE022023F0BAFF0B
:101420000028FAD071E74FF0020998E70225EBE7B0
:101430000223D5E70221B2E702229CE7014802F02D
:10144000B9F900BF1C68050810B54488038882B04C
:101450000022CDE900411146FFF762FE02B010BD47
:10146000F0B583B01646428004460D4601800371F4
:1014700002FB01F2089F93B1012B08BF042010D199
:1014800000FB02F030F0CCFF0022A0602B46CDE93B
:10149000006720461146FFF743FE03B0F0BD02206F
:1014A000EEE7014802F086F91C6805080023036195
:1014B0000A8810B44C8882810122C4818360037041
:1014C000416002755DF8044B704700BF0B884A8885
:1014D00083800023C280038143810380438070475F
:1014E0002DE9F041012186B04FF4000025F01EFBEC
:1014F00001210846284EDFF8B080284D25F0F2FA89
:101500000121042025F0EEFA30460422082124F0BF
:10151000CFFC06AC04224046092124F0C9FC4FF45C
:10152000807344F8183D30460223012621460027E7
:101530008DF804308DF805308DF806608DF8077051
:1015400024F028FC4FF4007321464046009324F019
:1015500021FC31464FF4000025F024FB39464FF4BE
:10156000000025F01FFB284624F0B8FC0C4C0D4B66
:1015700002934FF080624FF4804331462846CDE914
:101580000342ADF8143024F057FD284602A924F098
:10159000DBFC06B0BDE8F08100000240005C0040CA
:1015A0000000FFBFA08601000008024010B50A4CF1
:1015B0000121204624F06EFD2046012124F0B0FDDB
:1015C0002046002124F0ACFDFFF78AFF0348BDE868
:1015D000104031F023BA00BF005C00406C68050881
:1015E0002DE9F041074688466248634C634E614DE1
:1015F000012124F043FD02E0013C00F087803146E8
:10160000284624F039FE0028F6D0002159485A4CCB
:10161000584E5B4D24F056FD00223946554824F0C3
:1016200045FD01E0013C7BD02946524824F024FED0
:101630000028F7D0338B504C524E4E4D01E0013C08
:1016400078D03146284624F017FE0028F7D04948C4
:10165000494C4C4E41460546DFF8388124F0A6FD42
:1016600001E0013C48D03146284624F005FE002820
:10167000F7D04146284624F0FFFD0028F1D03D4830
:101680003D4C3E4E0121054624F0F8FC01E0013CB2
:1016900058D03146284624F0EFFD0028F7D03548D1
:1016A000354C374D39460122064624F0FFFC01E057
:1016B000013C4FD029462F4824F0DEFD0028F7D00A
:1016C000338B2D4C304E2B4D01E0013C4AD031463E
:1016D000284624F0D1FD0028F7D00121254824F028
:1016E000D9FC244824F064FD01210446214824F05B
:1016F000E9FC2046BDE8F081244A2548032131F069
:1017000027F9FFF753FF2046BDE8F0811F4A204824
:10171000214631F01DF9FFF749FF2046BDE8F08171
:101720001A4A1B48012131F013F9FFF73FFF204609
:10173000BDE8F081154A1648022131F009F9FFF79A
:1017400035FFD6E7114A1248042131F001F9FFF7BD
:101750002DFFCEE70D4A0E48052131F0F9F8FFF7CD
:1017600025FFC6E7094A0A48062131F0F1F8FFF7DC
:101770001DFFBEE7005C00400100030001000010F7
:10178000020000108000001040000010F8CC030898
:1017900078680508040000102DE9F8438146884662
:1017A0004648474C474E454D0121174624F066FCFC
:1017B00001E0013C5BD03146284624F05DFD002865
:1017C000F7D0494600223D483D4C3C4E3E4D24F06A
:1017D0006DFC01E0013C54D02946384824F04CFD12
:1017E0000028F7D0338B364C384E344D01E0013CA5
:1017F00051D03146284624F03FFD0028F7D02F482D
:101800002F4C324E4146054624F0D0FC01E0013C0D
:101810004AD03146284624F02FFD0028F7D027482B
:10182000274C2A4E39460546294F24F0BFFC01E0DB
:10183000013C12D03146284624F01EFD0028F7D086
:101840003946284624F018FD0028F1D01B48012114
:1018500024F020FC0120BDE8F8831E4A1E48042124
:1018600031F076F8FFF7A2FE2046BDE8F883194A6A
:101870001948214631F06CF8FFF798FE2046BDE884
:10188000F883144A1448012131F062F8FFF78EFE04
:101890002046BDE8F8830F4A0F48022131F058F87E
:1018A000FFF784FE2046D6E70A4A0B48032131F0B1
:1018B0004FF8FFF77BFE2046CDE700BF005C0040FD
:1018C0000100030001000010020000108000001061
:1018D0000400001008CD0308786805082DE9F047DA
:1018E0009846002B00F09A8081468A467548764ECD
:1018F000764F744D0121144624F0C0FB02E0013EF6
:1019000000F0B3803946284624F0B6FC0028F6D013
:10191000B8F1010F0CBF002101216A486A4F694EDE
:101920006B4D24F0CFFB00224946664824F0BEFBF5
:1019300002E0013F00F0A2802946624824F09CFCAE
:101940000028F6D0338B604F624E5E4D02E0013FBF
:1019500000F09D803146284624F08EFC0028F6D009
:101960005848594D5B4E51460746DFF878A124F0A0
:101970001DFC01E0013D6ED03146384624F07CFC70
:101980000028F7D05146384624F076FC0028F1D0E4
:1019900001214C484C4F4D4E4A4D24F06FFB01E065
:1019A000013F7DD03146284624F066FC0028F7D060
:1019B000494601224348444F424E454D24F076FBB0
:1019C00001E0013F75D029463E4824F055FC00282F
:1019D000F7D008F1FF3A3B4F3F4D338B54FA8AFA68
:1019E000661EC4F1020909EB0603984520DD364C5A
:1019F00001E0013C25D02946384624F03DFC002872
:101A0000F7D0384624F0D4FB06F8010F5645EAD14A
:101A10002C48012124F056FB012007E02F4A3048D2
:101A2000194630F095FFFFF7C1FD4046BDE8F0874D
:101A30003846002124F046FB0121384624F02AFBD9
:101A4000D5E7264A2648072130F082FFFFF7AEFD92
:101A50002046BDE8F087214A2148042130F078FF74
:101A6000FFF7A4FD2846BDE8F0871C4A1C48012169
:101A700030F06EFFFFF79AFD3046D7E7174A184857
:101A8000022130F065FFFFF791FD3846CEE7134A9B
:101A90001348032130F05CFFFFF788FD3846C5E7A7
:101AA0000E4A0F48052130F053FFFFF77FFD3846FF
:101AB000BCE70A4A0A48062130F04AFFFFF776FDE4
:101AC0003846B3E7005C004001000300010000104D
:101AD00002000010800000104000001018CD030824
:101AE00078680508040000102DE9F0471C46002B1B
:101AF0006AD0824689465048504DDFF854814E4E98
:101B00000121174624F0BAFA01E0013D70D04146A8
:101B1000304624F0B1FB0028F7D051460022464859
:101B2000464DDFF81481464E24F0C0FA01E0013D35
:101B300067D03146404824F09FFB0028F7D0B8F822
:101B400018303E4DDFF8FC803B4E01E0013D61D096
:101B50004146304624F090FB0028F7D049463648ED
:101B6000364DDFF8E080344E24F020FB01E0013DEB
:101B700059D04146304624F07FFB0028F7D0013C85
:101B80002D4D304EDFF8CC8057FA84F9013F17F81D
:101B9000011F2A4C284624F009FB01E0013C1DD01E
:101BA0003146284624F068FB0028F7D041462846F5
:101BB00024F062FB0028F1D04F45E8D11E480121F6
:101BC00024F068FA012007E01F4A2048194630F047
:101BD000BFFEFFF7EBFC2046BDE8F0871A4A1B4822
:101BE000052130F0B5FEFFF7E1FC2046BDE8F087A7
:101BF000154A1648012130F0ABFEFFF7D7FC284606
:101C0000EAE7114A1148022130F0A2FEFFF7CEFCAC
:101C10002846E1E70C4A0D48032130F099FEFFF712
:101C2000C5FC2846D8E7084A0848042130F090FE51
:101C3000FFF7BCFC2846CFE7005C00400100030032
:101C4000020000108000001028CD03087868050805
:101C500001000010040000102DE9F04F012883B0AE
:101C6000324E57D0022846D0DFF8C4B0B6F91090F3
:101C7000B6F912300BF28A57002B39DD013B09F11E
:101C8000FF329BB292B20233DB0001320093D301E8
:101C900001934FF0000A4FF0080EB9F1000F20DD5C
:101CA000ABF1020800255446C44661460022B6F94D
:101CB000103031F9020F04FB035302EBC30301326E
:101CC000082A27F81300F2D10134A6450CF1100CB4
:101CD000EBD101352BB2994508F18008E3DC019B7B
:101CE0009B44009B0EF1080E73450AF1080AD4D1FB
:101CF00003B0BDE8F08FB6F926B0B6F924200C4940
:101D0000B6F91890B6F91A305A4401F68A1701EB61
:101D1000C21BB1E7064AB6F924B0B6F91490B6F979
:101D2000163002F28A7702EBCB1BA5E7A0F4002065
:101D300074050120784BB3F9CC2B002A2DE9F04132
:101D400059DD013A92B27549B3F9CE4B895CA3F8DB
:101D5000CC2B2140E4B21441A3F8CE1B93F8BD7103
:101D6000DFF8B8C103EB471000F5137000264FF001
:101D7000070E13E0B3F9CE5B1CF80280A3F8CC2B5E
:101D8000E9B2013605EA080541FA02F2102EA3F87D
:101D9000CE5B02EB440400F1020029D0B0F8002928
:101DA000A24206DCB0F9001019B1B0F88018A142C7
:101DB00034DAB3F9CC1B4A1E002992B2DADC196B73
:101DC0004A1C1A630A78A3F8CCEBFF2A08BF023139
:101DD00006F1010608BF196302F07F01102E4FEAD9
:101DE000D212A3F8CE1B02EB440400F10200D5D1BD
:101DF0000320BDE8F0811A6B511C19631478FF2C85
:101E000008BF02324FF0070108BF1A6304F07F02D7
:101E1000A3F8CC1BA3F8CE2BCC409FE706EB07160C
:101E200003EB4606A21AB6F8CC413F02224417FA49
:101E300082F203EB420292F8CC02020910F00F008A
:101E4000A3F8D02B21D0B3F9CC2BB3F9CE4B8242DF
:101E50001FDB121A11B2314AA3F8CC1B555CE2B257
:101E60000A412C40A3F8CE4B92B2411E42FA01F136
:101E700011F0FF014CD14FF6FF7404FA00F042401C
:101E800001320846A3F8D22BB3E7A3F8D20BBDE882
:101E9000F081821AD7B2082FA2B21D6B1FD9394622
:101EA0004FF0080C6E1C1E632C78A3F8CE4B08393B
:101EB000FF2CC9B20CBF0235354604EB02220829BB
:101EC00092B2A3F8CCCBEDD8A7F10901C1F3C401BC
:101ED000083FC1EB411107EBC10101F0FF07691C8D
:101EE00019632C78FF2C08BF0235C7F1080189B2AD
:101EF00008BF1D63094DA3F8CC1B6D5CBA4044FAC2
:101F000001F111FA82F22C4092B2A3F8CE4BACE769
:101F1000A3F8D22B00206CE7A0F40020F8570408A7
:101F20002DE9F04FD7B001280C9000F05382022821
:101F300054D0964B964A1492B3F910201092B3F9EC
:101F400012200D93129203F6D434129B002B5CDD09
:101F5000109B0F94013B9BB20022DB011192159361
:101F60001392109B002B40F31A82159B119C07942F
:101F7000803323440B93149B0E330E930C9B012B45
:101F800000F02282022B0D9B40F01982D3F8C85139
:101F90000023089300260F9FDDF81CC033460DF187
:101FA000580E724691197B4A90191EAA941901E0A5
:101FB00050F8043F1BB207EB430835F8132038F8FC
:101FC0000C3013FB02F341F8043B8C42F0D1203675
:101FD000B6F5807F1CD06F4B9B59E0E76B486C4A8D
:101FE000B0F92610B0F92430B0F9184010940B4421
:101FF000B0F91A401294DB0100F6D4315C18134496
:102000001493129B0D90002BA2DC57B0BDE8F08F0B
:1020100056ABCDF824E001930DF1580C28E005EB08
:102020000308EB1A77180EEB0904761A1B128118B5
:10203000A9EB0E0E121ACCF8143024124FEA2E25FA
:102040003F1236124FEA282009121212019BCCF8D7
:102050000040CCF81C50CCF80470CCF81860CCF8D8
:102060000800CCE903120CF1200C634500F08480D9
:10207000DCF80430DCF81C20DCF81480DCF80C60A0
:10208000DCF808409F1840F2352108EB060001FB00
:1020900007F740F6681101FB00F0DCF818100C435C
:1020A00040F6E40101FB03793B491C4301FB027745
:1020B00001F62F2101FB080E14436FF47B61DCF85D
:1020C000002001FB0601A7EB010B0091D502DCF813
:1020D0000810DCF8182040F254400A4400FB02F2D9
:1020E000DCF8100044EA0804A9EB0E033443C602EE
:1020F000DCF818004FF0B50A03EB0B01A3EB0B0360
:102100000AFB01F10AFB03F38246244800FB0A2B79
:10211000DCF808004FF4C46A0AFB0022803554EA58
:1021200006000098DCF8004006EB050801F180018C
:10213000A5EB060503F18003CE4405EB0B0608EB87
:1021400002093844A8EB0202A5EB0B054FEA212156
:102150004FEA23234FEAC4047FF461AF019BCCE92B
:102160000644CCE90444CCE90244CCE900440CF137
:10217000200C63457FF47CAF094BCDF828C01D6867
:1021800015A81DAB0693AA4681462FE0A0F40020B7
:102190007405012004580408B2F2FFFF38F1FFFF74
:1021A0000C2101205AF823305AF82C10C9F880303D
:1021B000069BC9F800105AF82810C9F820105AF8E0
:1021C00022005AF826105AF82B405AF825505AF88F
:1021D0002760C9F840104B45C9F86000C9F8A04015
:1021E000C9F8C050C9F8E06000F0BC80D9F8E4E05C
:1021F000D9F82440D9F8A410D9F86450D9F884301B
:10220000D9F84480D9F8C460059304EB0E0259F85C
:10221000043F009340F235204B1900FB02F240F6D8
:10222000681000FB03F3043240F6E400724F0191A2
:1022300000FB042C04337148029507FB0137F910A9
:1022400000FB0E2240F2544706EB08006FF47B6B54
:1022500007FB00F046EA08070BFB05333C43684FD9
:1022600004914FEAEC0CD210DB100430ACEB010B04
:1022700007FB0606D11A4FF4C4670BEB010507FBF9
:102280000800ABEB0101B52707FB01F101F1800B61
:102290000099039244EA0E0401F1200E0199009A7C
:1022A0002143049C644407FB05F52746039C234413
:1022B0004FEAAE140394029C41EA040C0599CDF850
:1022C00000C012024FEA012E02F500520EEB020886
:1022D000F610A2EB0E0294194FEA2B2B921B02EB85
:1022E0000B06C010803508EB00012D12A8EB000092
:1022F000019604EB05081E18A2EB0B0B651B019A57
:10230000009C029607EB010C9613CF1B029A214604
:10231000C31A51EA0E014FEAAC3C4FEAA8384FEA23
:10232000A2324FEAA3334FEAAB3B4FEAA5354FEA5F
:10233000A7377FF437AF039C5AF82430C9F8E03050
:10234000C9F8C030C9F8A030C9F88030C9F8603089
:10235000C9F84030C9F82030C9F80030069B4B4519
:102360007FF444AF0E9B079ADDF828C0DDE90845ED
:102370009818A0F11002294651F8043B234422F892
:10238000023F9042F8D12035AC4500F11000F0D169
:10239000079B0B9A80339A4207937FF4EFADDDE9F8
:1023A0001012139B02EBC11201331192129A139374
:1023B0001BB29A423FF7D5AD57B0BDE8F08FD3F8C6
:1023C000C05180230893E5E50D9BD3F8C451002349
:1023D0000893DFE50B490C4AB1F92430B1F9140038
:1023E0000D91DB011090B1F91600129001F6D43175
:1023F0005C1813441493A8E5E1FCFFFFB2F2FFFF61
:1024000038F1FFFFA0F400207405012070B51C4DC9
:1024100041F2D453B5F8D22BEA5285F8BD0101241C
:102420000026FFF787FC60B9D5F8D03B53B90246C8
:1024300004F6E823013405EB430324B23F2C9A80D1
:10244000F6DD70BDB5F9D02B002A16DD224412B29C
:1024500004F6E823013405EB430324B2A2429E8034
:10246000F6D102F6E823541C05EB430324B2B5F879
:10247000D22B9A803F2CD4DD70BD2246F1E700BFFD
:10248000A0F400202DE9F04F934E89B00446984601
:1024900006911746A51C304642F67042002130F0E6
:1024A00034FAC6E90078C6E90B4506F5F5730293E0
:1024B0004FF0000BAA469AF801200AF10209A2F196
:1024C000C003C6F83090202B22D8DFE813F0990122
:1024D000210021002100CA0021002100210021004B
:1024E00021002100210021002100210021002100E4
:1024F00021002100210021002100210021002100D4
:10250000FA017F0044002100310021002100260053
:1025100002F0F002D02A00F03E859AF802209AF8E4
:10252000033043EA022309FA83FAC6F830A0C2E76F
:102530009AF802109AF803209AF804009AF80530E5
:1025400042EA0122654909FA82FA43EA0023C6F801
:1025500030A00B80AFE79AF802309AF803109AF88F
:10256000042041EA032109B202F00F0206EBC21275
:102570004F290AF1050302F132020AF145040ADC8F
:1025800013F8010B22F8020FA342F9D109EB010A5B
:10259000C6F830A08FE713F8010B22F8020FA34210
:1025A000F9D11A7802F00F0206EBC21232320AF1A8
:1025B00046030AF1860413F8010B22F8020FA34226
:1025C000F9D109EB010AC6F830A074E75546B6F90F
:1025D000B401A978EB782A7943EA01238242CA46FA
:1025E00019B240F06E81681D52B3531E9BB200EBCE
:1025F000430396F8B641181D07350BE086F8BB314A
:1026000015F8013C023503F00F030233A84286F8A7
:10261000BC3113D015F8022C15F8013CA2424FEA48
:102620001313EBD186F8B93115F8013C023503F0EC
:102630000F030233A84286F8BA31EBD1D6F830A0A6
:10264000B6F910005144316320B1B6F91230002BB5
:1026500040F02882224830F0E1F9002009B0BDE8BE
:10266000F08F9AF802109AF803209AF8043042EAA0
:10267000012212B2CF2A019240F32A810AF1040A00
:10268000FF2BC6F830A03FF416AF4FEA131E03F03D
:102690000F0303EB4E0E4FEA4E1C0CF24A27374451
:1026A00039460AF101000AF11104002210F8013B39
:1026B00021F8023F13449BB2A0421AB2F6D1113363
:1026C0001BB20193074B4FEA0E2903EB0C0809F5E7
:1026D000B37900230AE000BFA0F400200811012014
:1026E0009C6805080AF70020B84518D037F9021F82
:1026F0000029F9D09CB2F7DD89B24A1E4B4492B250
:1027000006EB43030132023B024410F8015B23F85D
:10271000025F9042F9D12144B8450BB2E6D106EBF5
:102720000C02B2F94C32002B40F0A8814FEA0E1E89
:102730009AB2531C1BB20EEB030106EB4101901C35
:10274000B1F94C1200B20029F2D0002B0DDDD04CB3
:102750000EEB02010CF6CC2204EB41013244A2F84C
:1027600080B022F802BB9142F9D1734406EB4301D9
:1027700003F2A452B1F84C1206EB430306EB4202FB
:1027800001390F28A3F8CC1AA2F804B01CDC0EF50E
:10279000937101448644BF4BC0F10F0006EB410129
:1027A0001EFA80F0023903EB4000B1F880380133A3
:1027B0005B009BB2A1F8023931F8022F1344013BB0
:1027C0008842A1F88038F0D106EB0C030CF5E671D5
:1027D000A3F8CCB1029B31449C440023B1F8802083
:1027E00013441BB221F8023F8C45F7D1019B9A4458
:1027F000C6F830A09AF80030FF2B7FF446AF5AE6B7
:102800009AF805009AF806209AF802109AF8033010
:1028100042EA0022F2609AF807009AF8082042EA99
:102820000022B2609AF80920A6F8B42143EA0123F5
:10283000012A1BB200F0ED80032A42D19AF80A2047
:1028400086F8B6219AF80B20120932829AF80B20EA
:1028500002F00F0272829AF80C108022342012FBD0
:1028600001013144C6F8C0119AF80D1086F8B7116D
:102870009AF80E100909B1829AF80E1001F00F01B2
:10288000F1829AF80F1012FB01013144C6F8C4110D
:102890009AF8101086F8B8119AF8111009093183C6
:1028A0009AF8111001F00F0171839AF8121012FBBF
:1028B0000102324409EB030AC6F8C821C6F830A069
:1028C000F9E5754830F0AAF8002009B0BDE8F08FAE
:1028D0001F0903F00F0303EB47074FEA471808F2FD
:1028E0004A2CB44463460AF105000AF1150110F8B8
:1028F000012B23F8022F8842F9D13B0203F5B37A6A
:10290000664B03EB080E002301E0E64518D03CF9C6
:10291000021F0029F9D09CB2F7DD89B24A1E534448
:1029200092B206EB43030132023B024410F8015B12
:1029300023F8025F9042F9D10B19E6451BB2E6D1AC
:1029400006EB0802B2F94C32002B40F035833F0110
:1029500099B24B1C1BB2FA1806EB4202881CB2F962
:102960004C4202B2002CF3D0002B0CDD484C7818FE
:1029700008F6CC2104EB40003144A1F880B021F8E6
:1029800002BB8842F9D13B4406EB430003F2A45159
:10299000B0F84C0206EB430306EB410101380F2A65
:1029A000A3F8CC0AA1F804B01CDC07F5937111441C
:1029B0001744C2F10F00374B06EB410117FA80F0C4
:1029C000023903EB4000B1F8803801335B009BB261
:1029D000A1F8023931F8022F1344013B8842A1F8D3
:1029E0008038F0D106EB08022D4BA2F8CCB108F5E7
:1029F000E671314498440023B1F8802013441BB29F
:102A000021F8023F8845F7D1019B4B449A46336336
:102A100051E59AF80A2086F8B6219AF80B20120997
:102A200032829AF80B2002F00F0272829AF80C1090
:102A30008022342012FB01013144C6F8C0119AF8FB
:102A40000A1086F8B7114FF0011474619AF80C104F
:102A500012FB01013144C6F8C4119AF80A1086F835
:102A6000B811B4619AF80C1012FB0102324409EB60
:102A7000030AC6F8C821C6F830A01CE5013BA2F83D
:102A8000CC3AA2F84CBB4FEA0E1E01207FE600BFF5
:102A90006EFF0020ECF600208C6805080AF7002085
:102AA0008AF60020B6F91440B6F91610B6F918C027
:102AB000B6F91A50A54A14FB01F7F78442F66C47A1
:102AC00093FBF1F1F1831CFB05F1F25190FBF4F45F
:102AD0003185A2F2044210FB03F1B18493FBF5F3BC
:102AE00090FBFCF07384B4833084A2F580636FF0B4
:102AF000FF0143F8041F9A42FBD1954A6FF0FF0390
:102B000042F8043F0133B3F5807FF9D1914B4FF484
:102B1000007103F5806243F8041F9A42FBD18E4B8B
:102B2000A3F6062307938C4B1B78012B09D1336B3B
:102B30008A499A1C002332630B8041F8043CC6F892
:102B4000CC3BB6F9B431012B00F0B381032B14D187
:102B5000338A728A13FB02F3002B40F32B8206F5B3
:102B6000B2547F4D1234002796F8B93186F8BD3142
:102B700096F8BA81FFF7DEF830B17A482FF04EFFB1
:102B8000002009B0BDE8F08F4046FFF73FFC002869
:102B9000F3D1754B33F8802C1988A3F180000A44D7
:102BA00012B223F880290280A91E01E033F9022F16
:102BB00021F8022F9C42F9D1338A728A01373FB241
:102BC00013FB02F39F4205F18005CDDBF38AB28A45
:102BD00013FB02F3002B2FDD06F5B254123400274D
:102BE00096F8BB3186F8BD3196F8BC81FFF7A2F8A4
:102BF0000028C2D14046FFF709FC0028BDD15B4B3D
:102C000033F8822C1988A3F182000A4412B223F807
:102C100082290280A91E01E033F9022F21F8022F38
:102C20009C42F9D1B38AF28A01373FB213FB02F317
:102C30009F4205F18005D3DB338B728B13FB02F3CC
:102C4000002B30DD06F5B254023D1234002796F811
:102C5000BB3186F8BD3196F8BC81FFF76BF80028D0
:102C60008BD14046FFF7D2FB002886D13B4B33F88F
:102C7000842C1988A3F184000A4412B223F8842911
:102C80000280294601E033F9022F21F8022F9C42ED
:102C9000F9D1338B728B01373FB213FB02F39F42A2
:102CA00005F18005D3DB324A1388B2F90C160133E3
:102CB0001BB21380002900F0648193FBF1F201FB49
:102CC0001233002B40F05D81234A01231370002052
:102CD000FFF726F90120FFF723F90220FFF720F97B
:102CE0000020FEF7B9FF0120FEF7B6FF0220FEF735
:102CF000B3FFB6F91240E400002C40F352811D4DA1
:102D0000F06855F8042CB6F910300495AC469042A2
:102D1000B1685CF8045998BF4FEAC30940F21B81BF
:102D20000027DDF818A00597BE464FEAC3080297B2
:102D3000002BC14640F3FA80A94240F2F7800022FE
:102D4000F80096461446039001974FE00C190120B5
:102D500008150120081D0120FA0A0120F80A0120A7
:102D600074000120AC680508F40A0120F60A01206D
:102D7000FC0A012004110120FF2B40F3C88040F021
:102D80003F0038F0FF0307D0B8F1FF0F00F3C88011
:102D9000B8F1000FC0F2F2804FEAD9097268DCF88E
:102DA0000030029F134432683B4401FB03229644E7
:102DB000754449EA40190AEB45030AF815904FEAB1
:102DC000292983F80190B6F91030013424B24FEA72
:102DD000C3084445C146224680F2A58004990D6887
:102DE000B16828198842A64680F0A080019FB6F9F4
:102DF0001E0097FBF0F0039FB6F91C8092FBF8F8D9
:102E0000C00003FB008003FB072900F62C4006EB03
:102E1000400009F62C3906EB4909B0F90680019FFC
:102E2000B6F9220097FBF0F0C000B6F920B0B9F96E
:102E3000069092FBFBF203FB002000F62C50C8EB3F
:102E40000813C8EB830306EB400012224FEA09295E
:102E500018FB0299C3EB8303B0F90620A9EB030327
:102E600040F23A2018FB00384FF6E37012FB00885E
:102E70004FF6247012FB003340F26F1012FB0092E9
:102E800012124FEA28281B1232F0FF075FFA88F966
:102E90005FFA83FBD0B203D0FF2A3EDC002A6BDB53
:102EA000C008800133F0FF027FF466AF40EA9B0068
:102EB00067E796F8B93186F8BD3196F8BA41FEF762
:102EC00039FF00287FF459AE2046FFF79FFA00280B
:102ED0007FF453AE3C4B198833F8802C0A4412B26D
:102EE00023F8802C1A800799A3F5286301E0B3F931
:102EF000002A23F8022B8B42F9D1079A134602F5D8
:102F00008071002223F8022B8B42FBD1CBE6002BF1
:102F1000FFF637AF40EA9B0033E74FF4F860C1E7B4
:102F20004FF01F093AE7049AB1681568059AB6F997
:102F30001240013212B2E400A242059217460ADAA8
:102F4000F0680190DCF80020059802900244019896
:102F50008242FFF4EDAE4D4404988D42056014D3D7
:102F60001A4B1A68144400221C600260F368A342E2
:102F70003FF6D9AD0120A8E4002093E74FF0000907
:102F80000CE7134A00231370A1E6002D7FF4CBADAC
:102F90000E4B1C68EAE70AF1040AC6F830A0FFF7F6
:102FA0008ABA0C4BB6F9109004931D68B1684FEAC9
:102FB000C909D0E7084D09E6013BA2F8CC3AA2F8CE
:102FC0004CBB3F010122F0E4F40A01200011012072
:102FD000FA0A0120041101207400012010B54FF4F9
:102FE00000510446094822F053FF0421084822F00A
:102FF00051FF204600F0F6FD0A230046013BFCD1BC
:1030000004210348BDE8104022F042BF000C0240FA
:103010000008024010B54FF400510446094822F060
:1030200039FF0421084822F035FF204600F0DAFD80
:103030000A230046013BFCD104210348BDE81040AF
:1030400022F026BF000C024000080240F0B501212A
:1030500093B00820002423F045FD01254FF40053D0
:10306000022702A9ED4802938DF80E408DF80F401B
:103070008DF80D708DF80C5022F08CFE294604203E
:1030800023F030FD042602A9E5488DF80E408DF8A6
:103090000F408DF80D708DF80C50029622F07AFEDC
:1030A0003146DF4822F0F4FE2020FFF7B3FFCA20AC
:1030B000FFF7B0FFC320FFF791FF0820FFF78EFF57
:1030C0005020FFF78BFFCF20FFF7A4FF2046FFF72C
:1030D00085FFC120FFF782FF3020FFF77FFFED2043
:1030E000FFF798FF6420FFF779FF0320FFF776FFD3
:1030F0001220FFF773FF8120FFF770FFE820FFF732
:1031000089FF8520FFF76AFF2046FFF767FF7820D9
:10311000FFF764FFCB20FFF77DFF3920FFF75EFF4D
:103120002C20FFF75BFF2046FFF758FF3420FFF706
:1031300055FF3846FFF752FFF720FFF76BFF2020BF
:10314000FFF74CFFEA20FFF765FF2046FFF746FF39
:103150002046FFF743FFB120FFF75CFF2046FFF753
:103160003DFF1B20FFF73AFFB620FFF753FF0A2071
:10317000FFF734FFA220FFF731FFC020FFF74AFF1F
:103180001020FFF72BFFC120FFF744FF1020FFF7AF
:1031900025FFC520FFF73EFF4520FFF71FFF152045
:1031A000FFF71CFFC720FFF735FF9020FFF716FF42
:1031B0003620FFF72FFFC820FFF710FFF220FFF7A0
:1031C00029FF2046FFF70AFFB020FFF723FFC220A8
:1031D000FFF704FFB620FFF71DFF0A20FFF7FEFEF2
:1031E000A720FFF7FBFE2720FFF7F8FE3046FFF78A
:1031F000F5FE2A20FFF70EFF2046FFF7EFFE2046E0
:10320000FFF7ECFE2046FFF7E9FEEF20FFF7E6FEB2
:103210002B20FFF7FFFE2046FFF7E0FE2046FFF7DA
:10322000DDFE2846FFF7DAFE3F20FFF7D7FEF62047
:10323000FFF7F0FE2846FFF7D1FE2046FFF7CEFE4F
:103240000620FFF7CBFE2C20FFF7E4FEC824004643
:10325000013CFCD12620FFF7DDFE0120FFF7BEFE7A
:10326000E020FFF7D7FE0F20FFF7B8FE2920FFF779
:10327000B5FE2420FFF7B2FE0C20FFF7AFFE0E20B4
:10328000FFF7ACFE0920FFF7A9FE4E20FFF7A6FED0
:103290007820FFF7A3FE3C20FFF7A0FE0920FFF7F0
:1032A0009DFE1320FFF79AFE0520FFF797FE1720DB
:1032B000FFF794FE1120FFF791FE2046FFF78EFEE8
:1032C000E120FFF7A7FE2046FFF788FE1620FFF754
:1032D00085FE1B20FFF782FE0420FFF77FFE1120F2
:1032E000FFF77CFE0720FFF779FE3120FFF776FE1F
:1032F0003320FFF773FE4220FFF770FE0520FFF733
:103300006DFE0C20FFF76AFE0A20FFF767FE2820FB
:10331000FFF764FE2F20FFF761FE0F20FFF75EFE30
:103320001120FFF777FEC8240046013CFCD129207C
:10333000FFF770FE2C20FFF76DFE01214FF080603B
:1033400023F000FC01214FF4000023F0CBFB01210E
:103350006F2023F0C7FB0E220321324822F0A8FD84
:103360000E2204212F4822F0A3FD0E2206212D4813
:1033700022F09EFD0E220B212A4822F099FD0E22FA
:103380000C21284822F094FD022341F6580202A99C
:1033900024488DF80D308DF80C3002928DF80E40D7
:1033A0008DF80F4022F0F6FC214609221E4822F03B
:1033B0007FFD092201211C4822F07AFD0E220821FE
:1033C000194822F075FD0E220921174822F070FDE0
:1033D0000E220A21144822F06BFD0E220B21124806
:1033E00022F066FD40F6037302A90F48029322F013
:1033F000D1FC0E2206210A4822F05AFD0E22072196
:10340000074822F055FD0E220A21054822F050FD02
:103410004FF4986302A90248029307E0000C0240AF
:1034200000080240000002400004024022F0B2FC0A
:103430000E2203215E4822F03BFD0E2206215C484D
:1034400022F036FD482302A95948029322F0A2FC3B
:103450000E220A21574822F02BFD4FF4806302A967
:103460005448029322F096FC0E220621524822F084
:103470001FFD0E220721504822F01AFD09220A21C1
:103480004D4822F015FD0E220B214B4822F010FD75
:1034900009220C21484822F00BFD4FF4E65302A903
:1034A0004548029322F076FC04220721C02023F035
:1034B00007FA4FF4003023F003FB012023F00CFA4D
:1034C0003D2023F0DBFB0028FAD002A822F064FFA5
:1034D000012509221D230024032140F20D1740F28B
:1034E00043160692CDE9075340F2171240F24713F4
:1034F00002A809910C92CDE90A760D93CDE9024418
:10350000CDE90444CDE90E44109422F0F5FE4FF4C9
:10351000CB6301A8ADF804308DF807508DF8064054
:1035200021F0E8FB1E2204230221FF2002920493D3
:103530000691079040F2E3124FF4F0734FF4A0713C
:103540004FF050400F9210934FF480620523119179
:103550000E9002A919480596CDE90C23184E039741
:10356000CDE90844CDE90A4422F070FF02A91548CC
:103570000E9622F06BFF284622F062FF29460F4884
:1035800022F0CCFF29460F4822F0C8FF284622F03F
:1035900057FF204622F020FF284622F00FFF0A495D
:1035A0000A4A0B4B0D7016601D7013B0F0BD00BFC2
:1035B000000C0240001402400018024084680140E0
:1035C000005802D004690140A8AB0120ACAB012037
:1035D000B0AB012040B1012805D1074A074B08498B
:1035E0001160187070477047034A044B4FF0504108
:1035F00011601870704700BFACAB0120B0AB012068
:10360000005802D010B5D8B1012815D00E4B1B7848
:103610006BB10E4C002308200121237023F086F8A3
:10362000022022F00DFF2378002BFCD010BD0120DA
:10363000BDE8104022F004BF054823F01FF8E5E77D
:10364000044823F01BF8E1E7A8AB0120102101207A
:1036500004690140846801400C4B197871B101295B
:103660000BD130B40A4C4FF050450846002225607B
:10367000FF2130BC1A70FFF7C5BF7047044A0548E8
:103680001060012210461A70FFF7BCBFB0AB0120DA
:10369000ACAB0120005802D008B5082023F072F826
:1036A0000021082023F042F8014B01221A7008BDC6
:1036B0001021012010B5012182B0402023F012FA20
:1036C00002A94FF4005341F8083D032200230124CE
:1036D00006488DF804408DF805208DF806308DF8E9
:1036E000073022F057FB02B010BD00BF00180240A7
:1036F00038B941B1012905D14FF40051044822F0F5
:10370000C9BB704770474FF40051014822F0C0BB5D
:1037100000180240F0B58BB000240746174E8DF814
:1037200008404FF4163001962EF07AFE23460146EB
:10373000224605468DF8104006940894384601ACA0
:10374000079603950594FEF79DFE0D4B04AA1A609B
:10375000FCF77EFF0B4A116813685B1AB3F5FA7F1A
:1037600005D2004613685B1AB3F5FA7FF9D3FCF76C
:103770005FFE03982EF05CFE0BB0F0BDF000400140
:1037800030AB0120B4AB0120054A116813685B1A05
:10379000984204D9004613685B1A8342FAD37047F3
:1037A000B4AB0120024A136801331360704700BFB5
:1037B000B4AB0120014608B501482FF0C9F8FEE777
:1037C000BC680508F0B5012199B07E20002423F0E3
:1037D00089F902270C220521B9488DF8047018AE2A
:1037E0008DF805708DF806408DF8074022F060FBDB
:1037F0000C220621B24822F05BFB602346F8603DB4
:10380000AF48314622F0C6FA0C222146AD480125C8
:1038100022F04EFB3146AB48009522F0BBFA214620
:103820000C22A94822F044FB29460C22A64822F08B
:103830003FFB0C220821A44822F03AFB0C2209216C
:10384000A14822F035FB0C220A219F4822F030FBD0
:103850000C220E219C4822F02BFB0C220F219A48AF
:1038600022F026FB4CF2037331469748009322F076
:1038700091FA21460C22954822F01AFB29460C2287
:10388000924822F015FB0C220721904822F010FBF1
:103890000C2208218D4822F00BFB0C2209218B48B9
:1038A00022F006FB0C220A21884822F001FB0C22A0
:1038B0000B21864822F0FCFA0C221146834822F0A4
:1038C000F7FA0C220D21814822F0F2FA0C220E2187
:1038D0007E4822F0EDFA0C220F217C4822F0E8FA13
:1038E0004FF6837331467948009322F053FA21460C
:1038F0000C22774822F0DCFA29460C22744822F088
:10390000D7FA39460C22724822F0D2FA0C2203214F
:103910006F4822F0CDFA0C2204216D4822F0C8FA3B
:103920000C2205216A4822F0C3FA0C220B216848B8
:1039300022F0BEFA0C221146654822F0B9FA0C2298
:103940000D21634822F0B4FA0C220E21604822F0C7
:10395000AFFA0C220F215E4822F0AAFA4FF63F037D
:1039600031465B48009322F015FA21460C22594853
:1039700022F09EFA29460C22564822F099FA0C228F
:103980000421544822F094FA0C220521514822F0D7
:103990008FFA0C2208214F4822F08AFA0C220F21BC
:1039A0004C4822F085FA48F23313314649480093D7
:1039B00022F0F0F92946284623F0ACF80722042328
:1039C00010204FF0400C4FF40061079209920893C9
:1039D0004FF400520F93109006AB4FF4C0760DA831
:1039E000CDE916230697CDE90A770C97CDE90D545A
:1039F00013941594CDE911C6149121F053FF0823B7
:103A0000CDE90335059402952021012022F070F8BC
:103A100004460028F8D102A821F0E2FF0520FFF7B4
:103A2000B3FE02210822CDE902120123059404937A
:103A30002021012022F05CF804460028F8D102A8D9
:103A400021F0CEFF03210822CDE9021204230594C0
:103A500004932021012022F04BF80028F9D102A87C
:103A600021F0BEFF2021012022F042F80028F9D1E8
:103A700002A821F0B5FF04200821012240F23123E1
:103A8000CDE90201CDE904232021012022F030F804
:103A90000028F9D102A821F0A3FF40F2AB2021F0C9
:103AA000BFFF2021012022F023F80028F9D14FF098
:103AB000504343F8040B13F13E5FFAD119B0F0BD47
:103AC0000004024000080240000C024000100240C6
:103AD0000014024000180240E9B130B4014402462B
:103AE0000346C4B21D1B03F8015B8B42FAD1017877
:103AF00079B9013B02E0107888420AD1934202F181
:103B00000102A2EB0401C9B2F5D1044830BC2EF089
:103B100085BF30BC704701482EF080BF1C69050886
:103B2000F0B5012189B04FF4801023F00BF801218A
:103B300020202A4C2A4E22F0D5FF0121202022F0FD
:103B4000D1FF0121202022F0CDFF204605220721B0
:103B500022F0AEF920460522082122F0A9F908AD8D
:103B600005222046092122F0A3F9802345F81C3DB7
:103B700000270223204629468DF808308DF80930A9
:103B80008DF80A708DF80B7022F004F92946204652
:103B90004FF48073019322F0FDF829464FF400732F
:103BA0002046019322F0F6F8304623F09FF94FF0BB
:103BB000827518220723304603A94FF00074CDE91F
:103BC0000542ADF81C300497039523F0F7F9304611
:103BD000012123F097FA09B0F0BD00BF00140240A4
:103BE0000050014010B5044602210A4823F034FB7E
:103BF0000028F9D02146074823F0FAFA01210548A8
:103C000023F02AFB0028F9D0024823F0EFFAC0B2D3
:103C100010BD00BF0050014010B504460221054808
:103C200023F01AFB0028F9D021460248BDE81040D5
:103C300023F0DEBA0050014008B50121044823F00A
:103C40000BFB0028F9D0024823F0D0FAC0B208BD1F
:103C50000050014008B52DF0A9FF162303604FF076
:103C6000FF3008BD0020704770B51E1E12DD541EC7
:103C7000A51903E0FCF728FBAC420BD014F8010FA8
:103C80000A28F7D10D20FCF71FFB2078FCF71CFB5E
:103C9000AC42F3D1304670BD0020704738B50C4BB4
:103CA0000C4A1868014491420FD90B4C04F10C05E1
:103CB00014F8010BFCF708FBAC42F9D12DF076FFAC
:103CC0000C2303604FF0FF3038BD196038BD00BFD2
:103CD0000000002000B074D0286905084FF400539C
:103CE00053600020704700BF01207047FEE700BF0F
:103CF00008B52DF05BFF162303604FF0FF3008BDC1
:103D0000012070470000000008B501224B218220ED
:103D1000FDF742FD00224B218220BDE80840FDF75F
:103D20003BBD00BF10B5042104468220FDF758FCBE
:103D300020EA0402D2B204218220BDE81040FDF73F
:103D40002BBD00BF70B5012186B0084622F0CAFE27
:103D500001214FF4804022F0F5FE06A94FF4004601
:103D6000002441F8086D49488DF814408DF817403B
:103D700022F010F80F21204623F0B0FA01250C2381
:103D800002A802968DF80D308DF80C408DF80E507B
:103D900021F034FB40F628720F2301A8ADF804206F
:103DA0008DF806308DF8075020F0A4FF384B394EBF
:103DB0001C706A4602232146822035707480B480CC
:103DC000FDF78CFDBDF800305BBA9BB240F61102E6
:103DD000934257D1022203218220FDF7DDFC05200A
:103DE000FFF7D2FC224603218220FDF7D5FC2846AE
:103DF000FFF798FF0220FFF795FF0820FFF792FFDB
:103E00002A460A218220FDF7C7FC48222021822071
:103E1000FDF7C2FC0520FFF7B7FC2A4621218220CE
:103E2000FDF7BAFC17218220FDF7DAFB22461721A5
:103E30008220FDF7B1FC9A2241218220FDF7ACFCE3
:103E400022464A218220FDF7A7FCFFF75DFF0722EB
:103E500056218220FDF7A0FC2A4658218220FDF73A
:103E60009BFC032240218220FDF796FCFF220B21C0
:103E70008220FDF791FC2A4609218220FDF78CFC67
:103E800006B070BD0448FFF795FC00BF000002407B
:103E900014210120B8AB012038690508F0B5402194
:103EA00083B08220FDF79CFB03062B4C0AD42B4BDE
:103EB000D3E90101012222706080A180FFF724FF75
:103EC00003B0F0BD04230DEB030200254D21822039
:103ED0002570FDF703FDBDF80430BDF8061020483D
:103EE0001E4D5BBA9BB240F6B832934295BFC3F504
:103EF0007163C3F56D630E33083349BA80FB036009
:103F0000184A89B2A1F5B4711844DB17C3EBE0037A
:103F100082FB0120CA17C2EB6002EF2B40F23F1177
:103F20006868A8BFEF238A4223EAE373A8BF0A4662
:103F3000A96822EAE272984234BF1E1AC61A914258
:103F400034BF571A8F1A3E44052EB5D9C5E9013240
:103F500011461846B0E700BFB8AB0120142101207C
:103F600089888888E9A28B2E0A4B1A782AB10A4AD6
:103F7000D9681268521A032A00D8704710B5FF2278
:103F800000240B2182201C70FDF706FCBDE81040C8
:103F9000FFF784BF14210120B4AB012010B5032228
:103FA00060218220FDF7F8FB0A20FFF7EDFB61217D
:103FB0008220FDF715FB622104028220FDF710FB31
:103FC000A4B20443A4B221460D482EF0C1FC07EE72
:103FD000904AF8EE677A17EE900A2BF015FF002250
:103FE000084B2BF069FF04A3D3E900232CF08EF8D3
:103FF0002CF024FAC0B210BD6666666666C65240F2
:10400000506905080000084008B54FF4004021F051
:104010004DFA00B908BD4FF4004021F049FA034AB7
:10402000034B1268DA6001221A7008BDB4AB01209C
:10403000142101200D4B0E4A93420CD2181D03325D
:10404000121A22F003020B49024451F8040B43F800
:10405000040B9342F9D11C481C494FF000028842DE
:10406000B8BF40F8042BFADB2CF0A0BC0000002005
:10407000A0F4002088E5050808B502482EF0CEFC23
:10408000FEE700BF5469050808B502482EF0C6FCDB
:10409000FEE700BF7469050808B502482EF0BEFCB3
:1040A000FEE700BF8869050808B502482EF0B6FC97
:1040B000FEE700BF5469050808B502482EF0AEFCC3
:1040C000FEE700BF9C690508A0F400203C370220F1
:1040D000704700BF70B590E82C00C4681C1B0E46EA
:1040E000A5EB020511D1002D07DB6FF000434B60FB
:1040F00005D16FF00043336070BD094B4B6029461A
:10410000204609F073FE306070BD2146284609F054
:104110006DFE7060002DF2D1002CEADA004BEAE768
:104120000100008038B5164C6268E3682568A16814
:10413000606902EBD27203EBD37305EB620201EB11
:104140006303000421692260A36009F049FEA369AA
:1041500060602169180409F043FED4E90013A268E5
:10416000E06003EBD375A1EB650100EBD075A2EB2A
:1041700065020B441044E36121602062A26038BDF7
:104180002C210120064BD3E9011010B4DA681C6819
:10419000C3E90B12C3E909405DF8044B704700BF47
:1041A0002C210120F8B5164C164ED4E90B133268B9
:1041B0006160E360F2B1626B1268D2E9030703EB5E
:1041C000D37501EBD172A0EB6202A7EB650522600B
:1041D000A56060690A442B440004C4E9072309F080
:1041E00005FE034601464FF48030736009F0FEFD82
:1041F0002061F8BDD4E909252260A560E9E700BF88
:104200002C21012004000020104B996BF0B4104CBD
:104210005F68DE681D68481C84FB0024C217C2EB7F
:10422000A4029C6802EB820207EBD77706EBD676F6
:1042300005EB670704EB660603EBC101A0EB420246
:10424000C1E90F769A63F0BC704700BF2C210120B2
:10425000676666662DE9F8433C4B3D4C1E683D4D54
:10426000C4F894506FF00041002EC4E92311C4F843
:10427000985045DD384B1B684FF0000C03EBC60629
:104280002F460846E046E146E6460FE0BA4202DD28
:1042900017464FF001095A688A4210DBAA4202DD34
:1042A00015464FF0010C08339E420ED01A68824228
:1042B000ECDA10465A688A424FF0010EEEDA083303
:1042C0009E4211464FF00108F0D1BEF1000F35D1EA
:1042D0006FF00040B9F1000F01D0C4F89870B8F148
:1042E000000F01D0C4F88C10D4F89810D4F88C309A
:1042F000091ABCF1000F24D1C3F10043013301E0DE
:10430000022319466069C4F89C30000409F06EFD70
:104310000546A069D4F89C10000409F067FDA36964
:104320008542A8BF05464FF400111804C4F8A050F8
:1043300009F05CFDC4F8A400BDE8F883C4F890005F
:10434000C8E7C4F89450EB1ADCE700BFACD60120F4
:104350002C2101200100008094D601201C4BF0B4D8
:10436000D3E92A475CBB57BBD3E9002505EBD570E1
:104370009968D3F898602244401084183944B442B4
:104380001A60996018DCD3F89060B44214DBD868E6
:10439000D3F8947000EBD07464106618BE4203DC4E
:1043A000D3F88C70BE4201DA391B99602A4401446B
:1043B000C3E90721F0BC7047321A1A60E7E70549E4
:1043C00000206FF000420860C3F8B020CCE700BFC7
:1043D0002C2101200400002070B52C4C2C4B60696E
:1043E0001B682169C4F8BC30012200236FF000452E
:1043F000C4F8B82000044FF48032C4E93222C4F873
:10440000B050C4E93033C4E92A3309F0E9FCA369A8
:1044100060602169180409F0E3FC1E4B1E4A19680C
:10442000E06052F8213005461BBB1C48606352F81F
:10443000041B29BB0133042BF9D1184B1B68666898
:10444000D3E9032306EBD67005EBD571A2EB60022E
:10445000A3EB61032260A360FFF780FF2268A368DB
:104460000F48C4E90B65C4E90923BDE870401CF09E
:1044700035B90A4B4FF48E7202FB01336363DDE7FB
:104480004FF48E7202FB03036363D7E72C210120F4
:104490005C85012080B60120E8BD012084B60120A2
:1044A0000C00002070B50A4D0A4E84B0002423464B
:1044B0003246092101A82EF099FC012101A820F023
:1044C00013F901340A2C45F8040BF0D104B070BD87
:1044D000FC210120B069050830B5084D85B00024E5
:1044E00023462A46092101A82EF080FC013401A8A8
:1044F00020F02AF90A2CF3D105B030BDB0690508C7
:104500000648002300F13C014FF0FF3241F8332010
:1045100001330A2BFAD10023836370472C21012039
:1045200010B5164C0023C4E93E334FF4A071A82205
:10453000C4E9051204F13C014FF0FF3241F8332089
:1045400001330A2BFAD10023A363FFF783FE4BF25A
:104550003331D4F8A00009F049FCD4F8A420084B6A
:10456000904201465860C4BFD4F8A01059604FF47F
:10457000803009F03BFC206110BD00BF2C210120E0
:104580000400002010B5074CFFF7A6FF064B0022E1
:1045900004F11C00C3F8B8201CF0A0F80123236329
:1045A00010BD00BF040000202C21012070B5124C6A
:1045B000256BBDB1114D626B2B68114E00219A42E3
:1045C000216303D1A26B33689A4205D0FFF7A8FF9D
:1045D0002A683368C4E90D23FFF7FEFEBDE870408A
:1045E000FFF760BFFFF778FF064B04F11C00C3F82C
:1045F000B8501CF073F8DDE70400002038BE01203D
:10460000F8BD01202C21012010B5074C074BD4F830
:10461000A01059604FF4803009F0E8FB2061BDE83C
:104620001040FFF77FBD00BF2C21012004000020B7
:1046300010B5074C074BD4F8A41059604FF48030E4
:1046400009F0D4FB2061BDE81040FFF76BBD00BF4F
:104650002C210120040000202DE9F041A64E054642
:10466000D6F8B8002C7884B048B92CB9A34B6A6846
:104670001B689A4200F0888004B0BDE8F081002CED
:104680003DD19F4A6B6812689A425DD09D4A12687C
:104690009A4200F088809C4A12689A4200F09F80FB
:1046A0009A4A12689A4200F08C80994A12689A429B
:1046B00000F0B380974A12689A4200F0B5808F4AA2
:1046C00012689A4200F0CC80934A12689A4200F035
:1046D000B280924A12689A4200F0D580904A1268DD
:1046E0009A4200F0E7808F4A12689A4200F03681C1
:1046F0008D4A12689A4200F0ED80002428E0012CD7
:1047000003D0002004B0BDE8F0817D4A6B681268D8
:104710009A4241D07B4A12689A423DD07A4A126846
:104720009A4272D0794A12689A426ED0784A1268D8
:104730009A4203D0774A12689A42E2D14FF480330A
:10474000C6E93233002097E7784B1B68002B53D023
:10475000774B1F681FB1204604B0BDE8F081297A6D
:10476000744808F011FE0028F5D0D6F81C21724BD1
:10477000013283FB0213A3EBE27303EB4303D31A6F
:104780003846C6F81C3177E70390FFF70FFF6B4BF5
:104790000398186001206FE7644B18680028B0D1B7
:1047A000C6F8A80068E7614B1B68002BD0D13169BF
:1047B0004FF4802009F014FB4042C6F8A800012401
:1047C000C6E75A4B1B68002BC2D131694FF48020D9
:1047D00009F006FB4042C6F8AC000124B8E7534B91
:1047E0001B68002BB4D131694FF4802009F0F8FA2E
:1047F0000124C6F8AC00ABE731694FF4802009F022
:10480000EFFA0124C6F8A800A2E7484B1868002870
:104810007FF477AFC6F8AC002EE7494B4FF6FA228B
:10482000C6E93232012493E7454A4FF6FA23C6E936
:10483000323201248CE7D6F80031002B0CBF012363
:104840000023C6F8003131D1D6E901213068F36880
:10485000C6E90901C6E90B230124FFF7D5FE77E776
:10486000364BDFF8C880C6F8004101271F60FFF70C
:1048700033FE08F11C00C6F8B8401BF02FFF3C4681
:10488000C8F8307064E7294B706B1A68002A0CBFB7
:104890000121002119606FF000420CBF294B2A4B07
:1048A000C6F8B020C0F8DC30012451E7FFF77AFCED
:1048B00001244DE7D6F80421736B002A0CBF0122B6
:1048C0000022C6F804210CBF204A214AC3F8DC208C
:1048D00001243DE71F4900234FF0FF3241F8332008
:1048E00001330A2BFAD1736B1B4AC3F8DC20002377
:1048F000B36301242CE700BF2C210120B0BB0020B2
:10490000A0BB0020A4BB002098BB00209CBB0020C3
:10491000ACBB0020A8BB0020B4BB0020B8BB00206B
:10492000BCBB0020C0BB0020C4BB00200400002092
:1049300024BE012040000020565555552CBE0120B4
:104940001E050100BC690508CC690508DC6905087D
:10495000E469050868210120046A0508DFF8608021
:10496000B36B0093134A144B142140460BF06AFAC0
:10497000B16B726B114B77683068C2F8DC804A1CEF
:1049800083FB023C07EBD777F468D31700EB670093
:10499000C3EBAC03B76806EBC10104EBD47403EBC3
:1049A000830307EB6404A2EB43030C64C863B363A3
:1049B0000124CDE6FC690508F069050867666666AE
:1049C0003422012038B5124C124DD4F8CC1068684E
:1049D00009F006FA034601464FF480306B6009F097
:1049E00005FA6B68D4F8A020206193420BDBD4F861
:1049F000A420934203DCBDE83840FFF793BBBDE839
:104A00003840FFF715BEBDE83840FFF7FDBD00BFD9
:104A10002C2101200400002070B51C4C636BD4F8DD
:104A2000B0201B68D868824204D11B69D4F8B42036
:104A30009A422AD0164E174D716809F0D1F92169B2
:104A4000284009F0CDF9626B63681268716803EB66
:104A5000D373A0EB63031069236009F0C1F92169E6
:104A6000284009F0BDF9626BE36816686568216843
:104A700003EBD372A0EB62002944D6E90352C4E9E8
:104A80002C5203442362A060E16170BD2C210120FF
:104A9000040000200000FFFF124AD2F8C010D2F834
:104AA000203199421DDDD2F82401431C082B10B49B
:104AB000C2F824310C4C04BF0023C2F824310B4B44
:104AC00054F82000C2F8C40083FB0103A3EBE17398
:104AD00003EB43035B000633C2F820315DF8044B5F
:104AE000704770472C21012004590408ABAAAA2A58
:104AF00010B5154CD4F8B830B3B1144AD4F8C0305E
:104B000012680133C4F8C030B2B9D4F8C830B3F574
:104B1000803F0AD1D4F8A83013B9D4F8AC301BB117
:104B2000BDE81040FFF71ABC10BDFFF74BFFD4F8EB
:104B3000A830002BF1D0F3E7FFF76EFFD4F8C830B0
:104B4000B3F5803FE6D0F0E72C21012004000020DF
:104B5000064B10B4D3E90524014604FB02F2D3F856
:104B6000BC005DF8044B2DF0D0BE00BF2C2101200D
:104B70002DE9F04FBA4E4468326AC368944283B05C
:104B80008C461DDCB568AC42B4BF042400249A42B4
:104B9000B8BF082380F25A810768326897421CDB4D
:104BA000F569AF428568C8BF44F00204AA4219DD26
:104BB00043F001031C401CD0002003B0BDE8F08F7F
:104BC0009A42F9DBB46807683268A342B4BF042391
:104BD000002397424FF00804E2DA8568AA4244F0C5
:104BE0000104E5DCF1698D42C8BF43F002031C40BB
:104BF000E2D1DFF870828146D8F80410B81A654611
:104C000009F0EEF8D6F8FC20D9F80430D8F80410F2
:104C1000B76902EB2040B2682860981A09F0E0F802
:104C2000D6F8F820D9F80830D8F80410A7EB2047B8
:104C3000306817446F60181A09F0D2F8B268019210
:104C4000D6F8FC20D9F80C30D8F80410B76902EB7C
:104C50002040019AA860981A09F0C2F8D6F8F82006
:104C60006B68A7EB20401044002BE860C0F2C080C6
:104C7000B2699342ACBF042300232A68002AC0F221
:104C8000B48071698A42A8BF43F002030028C0F2D1
:104C9000AA80B2699042A8BF0424AA68002AC0F280
:104CA0009F8071698A42A8BF44F0020413EA04009D
:104CB00082D1D6E9056106F1FF3801F1FF3C1FE022
:104CC00014F0080E76D095E89800EA68FF1A04FB05
:104CD00007F7A21A97FBF2F71F44C5E902704FF0DD
:104CE000000E72468A42ACBF04240024002F2CDB45
:104CF000BE4242DC44F00204734623427FF45CAFC0
:104D000053EA040276D0002BDAD01A0737D49E4635
:104D100004F008025F071CD5D5E90097AA68A7EB45
:104D2000010AA2EB09020AFB02FAEA68BF1A62460C
:104D30009AFBF7F74F4473453ED0002AC5E902724B
:104D4000D0DA002F4FF00804D2DA44F001047346A1
:104D5000D3E713F0020735D0D5F804902A68EF683E
:104D6000A8EB020AA7EB09070AFB07FAAF68BA1A11
:104D700047469AFBF2F24A44DDE77346BDE7D5E9C0
:104D80000127D5F800E0EB686860A7EB0E0702FB8F
:104D900007F7D21A97FBF2F777442F6000228A4276
:104DA000ACBF04230023002F17DBBE42A5DC43F079
:104DB0000203A2E72346ABE7002AC5E90072EEDA58
:104DC0000823F0E713F0010916D1734524D0002918
:104DD000C5E9029926DC04248AE743F001038CE745
:104DE00044F0010462E7082457E743F001034DE76C
:104DF000082342E70120E0E6D5F80490EA68D5F8F8
:104E000000A0A9EB020202FB0AFBAA68A2EB0A0AB5
:104E10009BFBFAF24A448EE70029C5E9009906DCBB
:104E20000423C2E7002E0CDD4C46734668E7002ED3
:104E30000ADD002CDED09646002A7FF44EAF2346D2
:104E400068E77346022458E7022356E79D4201DCD7
:104E50000023A1E6002C7FF4AFAE04239CE600BF44
:104E60002C210120040000200268414B002A2DE97A
:104E7000F04F53DB5C69A24250DA4568002D4DDBF0
:104E80009E69B5424ADA8768002F47DBBC4245DDA0
:104E9000D0F80CC0BCF1000F40DB66453EDDBF1A08
:104EA000ACEB050C87EAE77A002FAAEBE77A05FB63
:104EB00004F98CEAEC77A7EBEC77ACBF4FF0010E6E
:104EC0004FF0FF3ED3F8BC30BCF1000F09EB020BF2
:104ED000C9B2ACBF4FF001084FF0FF38BA454FEAF6
:104EE0004A064FEA470C03F80B1024DD8768BA42E4
:104EF000ACEB660A10D07244BAF1000F03EB020764
:104F000004DB4544AAEB060A05FB04F907F809107F
:104F100087689742E244EED1BDE8F08F1549D3F897
:104F2000282108681449C068541CC3F82841BDE80A
:104F3000F04F2DF019B8C768BD42A6EB6C09EBD055
:104F4000454404FB05FA08FB04F400E04544B9F1CC
:104F5000000FA8BF724403EB0207A8BFA9EB0C091E
:104F600007F80A10C768AF42B144A244EED1D3E7B4
:104F70002C210120F4EA0020186A050810B50C461F
:104F80000549FFF7F5FD00B910BD21460248BDE80F
:104F90001040FFF769BF00BF582201202DE9F047FC
:104FA0002A4BDFF8B0801B68D8F80020D31AC3F36F
:104FB000160584B00746002D45D05B42C3F31603A7
:104FC00058BF5D42C5F500051544D8E90246D8F83A
:104FD0000430019402EB030926444D45039611DA8F
:104FE000EA4600950295394605F500055046FFF75B
:104FF000C5FFA945F5DCD8E90023D8E9024602EB54
:1050000003092644124B1B68E31AC3F3160139B196
:105010005B42C3F3160358BF5942C1F500010C446B
:10502000B4420092CDF808900ADAEA46019403945B
:10503000394604F500045046FFF7A0FFB442F5DB03
:1050400004B0BDE8F0871546BFE700BF40D7012098
:105050009CD601202C2101202DE9F041DFF8EC80C5
:10506000D8F80030002B48DD354C364E04F59E77DD
:1050700000251AE0110613D4596B00293FD0B3F96B
:105080001200272850D0920639D4186B0A6803689A
:105090009A423BD0D4F8C41038464031FFF76EFF37
:1050A000D8F800300135AB4227DD3168D4F81CC197
:1050B000AA018B188A5859681068C4F83C01D1E9D4
:1050C00000015268C4F84021C4F84401C4F84811F2
:1050D0001A8ABCF1000FCFD1D005CBD4636B5B6CC7
:1050E000002BDDD01306DBD463211748FFF746FF02
:1050F000D8F800300135AB42D7DCBDE8F081D4F8F8
:10510000C4103846B031FFF739FFC9E74A68436831
:105110009A420ED1BCF1000FC2D0D4F8C410384668
:105120006031FFF72BFFBBE7B8213846FFF726FFBA
:10513000B6E7D4F8C4103846E731FFF71FFFAFE7F2
:105140002C21012070D701206822012054D7012092
:105150002DE9F843DFF850904FEAD248D9F80030F3
:105160000E46044653F82810006808F039FE0D4B2F
:1051700053F8287005463946306808F031FE394644
:105180002D1A206808F02CFED9F80030074653F895
:105190002810306808F024FE384430602560BDE8EF
:1051A000F88300BFC0850408DCE400202DE9F0434B
:1051B000B1F1000985B0DDE90D784DDD1E461546DB
:1051C000044600EB091916E0002E48D1A2684344BA
:1051D0003944CDE901320091E1680391DDE9022310
:1051E00010343A4443440C99029268460393FFF703
:1051F000C5FE4C4530D0D4E90013CDE90013002D95
:10520000E2D0284608F0ECFD01990090284608F00D
:10521000E7FD0190002E32D0324601A96846FFF723
:1052200097FFDDE90003D4E9021238444344CDE995
:10523000000302910392284608F0D2FD03990290E0
:10524000284608F0CDFD0390002EC7D0324603A9B2
:1052500002A8FFF77DFFC1E705B0BDE8F083324645
:1052600001A96846FFF774FFDDE90023D4E90210C5
:105270003A4443440291CDE900230390E6E7009BC2
:10528000A168E268029140443B440190009303927C
:10529000D1E700BF2DE9F0472D4B1A6884B0002AF2
:1052A00036D02C4D2C4EDFF8C4A0DFF8BC80DFF8E0
:1052B000C0904FF0FF343368284A013463B113685B
:1052C00027494BB94B6BAB4206D0032C05F58E75C5
:1052D000F1D104B0BDE8F0875AF82430A200002BC9
:1052E000F3D0EB6B93B952F8090029680F690B6A88
:1052F0000297C9680022CDE9000107214046FFF767
:1053000055FF032C05F58E75D5D1E2E7F620ECE7C5
:10531000134B596BD3F81C0109680B6AD1E903419F
:1053200050B1D120CDE90141009010210D48FFF787
:105330003DFF04B0BDE8F087D125CDE9014102462B
:10534000009507210848FFF731FF04B0BDE8F0875A
:1053500000BB012084B6012024BE012008BB01202F
:105360002C210120E400002074000020E8BD012071
:10537000245904082DE9F04FDFF868A0DAF800306E
:10538000002B85B026DD4FF00008DFF85CB0134F2E
:10539000134E0546C146DBF8003043449C6C8CB18B
:1053A0002169D7F8C420236A0291E16801912A4457
:1053B000009203214FF480123046FFF7F7FEA469F4
:1053C000002CEDD1DAF8003009F101094B4508F164
:1053D0005808E0DC05B0BDE8F08F00BF2C210120AB
:1053E000E4010020D8D601208CD601202DE9F04719
:1053F000224D234F82B005F13C0605F1D008002470
:1054000056F834305A1C4FEAC40928D02868796805
:10541000181A08F0E5FCAA680192B144D5F8FC20FE
:10542000D9F804307968D5F8189002EB204A019A2F
:10543000981A08F0D5FCD5F8FC3053450FDC6B69A1
:10544000053B5345A9EB204909DBD5F8F83009EBBA
:1054500003018B4203DCAB69063B8B4205DA013466
:105460000A2CCDD102B0BDE8F08758F82420504670
:1054700001341CF05FFC0A2CC2D1F3E72C2101207F
:1054800004000020054AD2E9053101FB033303EB98
:10549000D373D2F8BC205B10D05470472C2101206C
:1054A00010B51B4CD4F8B83003B910BDD4E905329F
:1054B000D4F8BC0002FB03F200212DF026FAD4F848
:1054C0000431E3B9FFF7C8FDFFF7E4FED4F81C315F
:1054D000022B18D0D4E9053101FB033303EBD3735E
:1054E000D4F8BC205B106021D154FFF77FFFD4E9D2
:1054F0000523D4E93E10BDE810401CF0ADBB682088
:10550000FFF74CFDDEE710217020FFF733FFE1E7E6
:105510002C210120F0B40B4F06460FCE3D6805EB61
:10552000850407EB840404340FC401356B4203F097
:105530003F0305F03F0558BF5D4233683D6023607F
:10554000F0BC70477C2201200D4AD2F80405136894
:10555000984212D0431C10B45C4204F03F0403F0A4
:105560003F0300EB800058BF6342111D01EB800038
:10557000C2F804355DF8044B70470020704700BF47
:105580007C22012070B50E4605462BF089F90446B1
:1055900030462BF085F9431CA34205D8241A28195C
:1055A00010F8013C2F2B01D0002070BD31462DF0AA
:1055B000EAFCB0FA80F0400970BD00BF2DE9F84365
:1055C00007460AF047FAC8BBDFF88880D8F80030F1
:1055D0007F2B26DD1F4EDFF88490002506E0204655
:1055E0002CF026FFD8F800309D4223DA56F8044FFD
:1055F00039462046FFF7C6FF20B120460AF02AFAB6
:1056000000BB3468002320463A4649460AF0C4FBF2
:1056100004460AF01FFA01350028E0D02046BDE814
:10562000F88308EB830201330B49C8F80030002BE4
:105630005160CFDC00242046BDE8F8833C4620467C
:10564000BDE8F88308EB85056868BDE8F8432DF0F0
:10565000C5BC00BF84270120606D0508A4B3050800
:1056600010B50446FFF7AAFF002808BF204610BD6A
:105670002DE9F04F83B0804601914C48012107F09D
:1056800029FE8346002861D1494803687F2B56DDF7
:10569000484A00925B45DFF834A132DD009B464C5E
:1056A00053F8046B009304F1A809012548FA05F3A7
:1056B000DB0714D554F8107C30463946FFF762FFFB
:1056C00060BB514630462BF0E1F8F8B938462DF072
:1056D00085FC074638460AF0BDF930B14FBB0C34A3
:1056E000A14508D014F80C5CE0E738460C342CF0E7
:1056F0009FFEA145F6D12E4B1B680BF1010B5B45BC
:10570000CCDC0027384603B0BDE8F08F3A460023D2
:105710002A4930460AF040FB0746DBE730460AF0EC
:1057200099F90028CDD030462DF058FC0746002FBF
:10573000D5D0019B38461D7003B0BDE8F08F00EB5B
:1057400083021F49516001330360A1E71D4B00F143
:10575000010B1B6853F82B402046FFF72FFF07462D
:10576000F0B12F2138462DF0A0FCB8B1461C124CE8
:10577000012504F1A80901E014F80C5C48FA05F3CE
:10578000DA07304605D554F8101C2DF0FCFB002834
:10579000CFD00C344C45EFD10925CAE73E46E6E7A9
:1057A0002146094807F0B2F9DBE700BF686D05083C
:1057B000842701208827012044590408A4B3050840
:1057C000606D05085CBF0120706D050848AA0508DA
:1057D0002DE9F04780463C202CF022FE124C064674
:1057E00004F1A80A0123002701E014F80C3C48FA50
:1057F00003F3BD00DB0706EB05090BD554F8100CCD
:10580000FFF7DCFE30B1A4F110037351043501370A
:1058100006EB05090C345445E7D100233046C9F89E
:105820000030BDE8F08700BF4459040810B40C4CA8
:1058300001212246002303E001330E2B0BD0117906
:10584000814202F10C02F7D103EB430354F8230029
:105850005DF8044B704703485DF8044B704700BF88
:10586000345904088C6D050830B40C4D01242B46C6
:10587000002205E001320E2A03F10C030BD01C7943
:105880008442F7D15C798C42F4D102EB420255F8A4
:10589000220030BC7047024830BC704734590408BD
:1058A0008C6D050830B40E4D01242B46002205E016
:1058B00001320E2A03F10C030ED01C798442F7D179
:1058C000042902D05C798C42F2D102EB420205EB52
:1058D000820230BC90687047024830BC704700BFFD
:1058E00034590408986D0508704700BF08B507F0E3
:1058F0008BFA0B4B1B6843B10A4B1B68002BBCBFD8
:1059000003F57F43FF3300EB234000EB8000064AA2
:10591000C0EBC00382FB0320DB17C3EBA01008BD64
:1059200060030020D4AB0120D34D6210F0B5254AAE
:10593000254B264C15681E6885B007F077FB236859
:105940001B6898472368DB689847214B1B68002B2E
:1059500032D195FBF6F51F4A616810684D1B30B1D6
:105960001D4A106858B3082D03DD184622E0042DA7
:1059700020DC6D4600236B600093C5E9023322688A
:10598000164E53682846984767687A4202F07F02AD
:1059900007F07F0358BF534203EB830C95E80F00D9
:1059A000013706EB4C156760012485E80F00C5F848
:1059B0008040204605B0F0BD002005B0F0BD022DAE
:1059C000D7DDF7E7CCAB0120D0AB0120882901203F
:1059D000242101206003002028210120DC2901204E
:1059E00038B50F4CFFF782FF0E4925680E4B8A68C9
:1059F0001B6890FBF3F0451B954220600CDB0024F4
:105A0000AD1A8C6002D106E0A54204D0FFF78EFFEC
:105A100001340028F8D138BD551B8D6038BD00BF5A
:105A2000C8AB012088290120D0AB0120024BDB68E4
:105A300003B17047D4E700BF882901202DE9F84F52
:105A4000204B8A46D3F80090804670B31E4B1F4F00
:105A5000D3F810B0DBF1000202F07F020BF07F03FD
:105A600058BF534203EB8303002507EB43172E4631
:105A700000E00435AC0008EB040307EB050C3C44E4
:105A80000136B9F1000F01D1012EF2D00FCB5AF837
:105A900005E0082E84E80F00CCF880E0E9D10A4A3E
:105AA0000BF101031361BDE8F88F0029CED1B9F1E4
:105AB000000F02D0064807F029F80648BDE8F84F65
:105AC0002CF0ACBF2421012088290120DC290120F1
:105AD000106F0508386F050808B5FFF707FF034B7F
